:03000000020D648A
:0C0D6400787FE4F6D8FD758157020DABD6
:100EB700C182C181C103023700000235000002214F
:100EC700000A024C000A02390012024A00000248D6
:100ED70000000233000002230006022500000B3D3C
:100EE700C0F9A4B0999282F88090FF02270000020F
:0F0EF7002B0000022D0000022F0000023100002E
:100F9F0063899263A8A663B802758CA4758AA4E4CA
:100FAF00F58DF58B638854F5C975C80475CDF87543
:090FBF00CBF875CCCD75CACD222A
:100FC800D296D294D292D290D2A3D2A2D2A1D2A0B7
:050FD800C2A7C2A52222
:100E5B00E5277045E52814601814602314602E24D0
:100E6B00037036D2A3743D252CF8E6F580C2A08022
:100E7B0028D2A0743D252EF8E6F580C2A1801AD2A7
:100E8B00A1743D2530F8E6F580C2A2800CD2A27485
:100E9B003D2532F8E6F580C2A30528E5287002054A
:0C0EAB0027640445277004F527F5282271
:100F4B00C3E534953AE5396480F8E533648098500D
:100F5B0004D2A78002C2A70534E5347002053364BE
:0A0F6B00C845337004F533F5342255
:050FEE008E398F3A224C
:100DF000C3E54B9522E5216480F8E54A648098506C
:100E0000053002058009300206C295C2978004D2DF
:100E100095D297054BE54B7002054A640A454A7026
:100E200004F54AF54BC3E549954DE54C6480F8E57A
:100E30004864809850053001058009300106C29150
:100E4000C2938004D291D2930549E54970020548C6
:0B0E5000640A45487004F548F549228B
:03000B00020FDD04
:100FDD00C0E0C0D075D008C28D120F4BD0D0D0E07C
:010FED0032D1
:03002B00020B6263
:100B6200C0E0C0D075D010C2CF0538E538AE3770BE
:100B720002053714640A4E7008C203D2A5F537F590
:100B820038120E5BC2A5120DF0D3E5249406E523BC
:100B920064809480401E0526E526AE257002052558
:100BA2001464FA4E7037F525F526E5241524702DC8
:100BB20015238029C3E5249406E52364809480509C
:100BC2001C0526E526AE25700205251464FA4E7032
:100BD2000CF525F5260524E52470020523E522649B
:100BE2000A45217012E54D640A454C700A053CE540
:100BF2003C700A053B8006753B00753C0020B00A3C
:100C0200052AE52A700C05298008C200752900759D
:100C12002A00E52A640A45297002D200D0D0D0E029
:010C2200329F
:03001300020A706E
:0D0A7000C0E0C0F0C083C082C0D075D018B7
:100A7D00AF8DEFFEAD8B7C00E42DFFEC3EFEE48FE1
:100A8D00578E56F555F554AD55AC547B587A01F942
:100A9D00F81208008F578E568D558C54E47BD07A02
:100AAD0007F9F8120F078E358F36EE3395E08F5715
:100ABD008E56F555F554E47BE87A03F9F8AF57AE49
:100ACD0056AD55AC54120F078E2B8F2CAF57AE561B
:100ADD00AD55AC54E47BE87A03F9F8120F07AC1866
:100AED00AD19AE1AAF1B8F578E568D558C54E47BB6
:100AFD0064FAF9F8120F078E2D8F2EAF57AE56AD43
:100B0D0055AC54E47B64FAF9F8120F07AC18AD1923
:100B1D00AE1AAF1B8F578E568D558C54E47B0AFA47
:100B2D00F9F8120F078E2F8F30E47B0AFAF9F8AF20
:100B3D0057AE56AD55AC54120F07AE1AAF1B8E31D2
:0A0B4D008F32758D00758B00D20306
:0B0B5700D0D0D082D083D0F0D0E032AC
:0F0F75007F127E00120FEE7FD07E077D007C0082
:100F84008F538E528D518C50785074FF120867E441
:0B0F9400FBFAF9F8C312084F40EE22F0
:100CD600120FC8120F9F120F7CD3E5369464E535C8
:100CE60064809480405620B61920B50E8523218550
:100CF600242285234C85244D8025752100752205E7
:100D0600801720B50E75210075220A754C00754DA9
:100D160005800C75210075220A754C00754D0AD3A5
:100D2600E53C94F4E53B6480948140ADC2A67FE641
:100D36007E1B120F80D2A6120C2380FE754C007506
:100D46004D0A75210075220A120F7CD3E53694648C
:0E0D5600E535648094805081120953020CDF51
:100953007F1C7E00120FEE7FA07E0F120F80853565
:100963004E85364F7F087E00120FEE7F707E171282
:100973000F80D3E54F9536E5356480F8E54E648006
:100983009840657F087E00120FEE75210075220ADC
:10099300754C00754D027FA07E0F120F8020B63775
:1009A30020B53430B40E752100752206754C0075E0
:1009B3004D0A80087521007522068013C3E536941D
:1009C30096E5356480948050D475210075220875AE
:1009D3004C00754D0680E530B57175210075220612
:1009E300754C00754D0680EF7F1C7E00120FEE756F
:1009F3002100752202754C00754D0A7FA07E0F12EF
:100A03000F8020B63520B53230B708752100752226
:100A13000A8006752100752206754C00754D06C3C4
:100A2300E5369496E5356480948050D6752100753B
:100A33002206754C00754D0880E530B60E75210011
:100A4300752206754C00754D0680EF7F127E0012ED
:100A53000FEE75210075220A754C00754D0A120FB1
:0C0A63007C752300752408E4F53BF53C8D
:010A6F002264
:100C2300752100752206754C00754D0A3000FD755F
:100C3300210075220A754C00754D0A120F7CD3E50D
:100C4300369446E53564809480406230000E752109
:100C530000752208754C00754D0880E27F14120F51
:100C630077300014120F7575210075220A754C0038
:100C7300754D042000C880FB7F10120F77300014DD
:100C8300120F75752100752204754C00754D0A20ED
:100C930000AC80FB75210075220A754C00754D0A66
:100CA300C2A67FE67E1B120F80D2A680FE752100AE
:100CB30075220A754C00754D0AC2B12000FD7F6094
:100CC3007EEA120F80D2B1C2A67FCD7E37120F808B
:030CD300D2A62284
:100D7000020CD6E493A3F8E493A34003F68001F2B7
:100D800008DFF48029E493A3F85407240CC8C33384
:100D9000C4540F4420C8834004F456800146F6DF53
:100DA000E4800B0102040810204080900EB7E47E1E
:100DB000019360BCA3FF543F30E509541FFEE49348
:100DC000A360010ECF54C025E060A840B8E493A30F
:100DD000FAE493A3F8E493A3C8C582C8CAC583CA3A
:100DE000F0A3C8C582C8CAC583CADFE9DEE780BEF2
:010F060000EA
:10080000E88FF0A4CC8BF0A42CFCE98EF0A42CFC97
:100810008AF0EDA42CFCEA8EF0A4CDA8F08BF0A415
:100820002DCC3825F0FDE98FF0A42CCD35F0FCEB74
:100830008EF0A4FEA9F0EB8FF0A4CFC5F02ECD3939
:0F084000FEE43CFCEAA42DCE35F0FDE43CFC22A6
:100F0700C2D5E830E70FB2D5E4C39BFBE49AFAE415
:100F170099F9E498F8EC30E717B2D5120F3D1208AB
:100F2700C1E4C39BFBE49AFAE499F9E498F88003D7
:100F37001208C130D50DE4C39FFFE49EFEE49DFD7A
:040F4700E49CFC2208
:10084F00EB9FF5F0EA9E42F0E99D42F0EC6480C820
:06085F0064809845F022C0
:100865007401FF3395E0FEFDFC080808E6CF2FF67E
:1008750018E6CE3EF618E6CD3DF618E6CC3CF62257
:1008850075F008758200EF2FFFEE33FECD33CDCC2A
:1008950033CCC58233C5829BED9AEC99E5829840AD
:1008A5000CF582EE9BFEED9AFDEC99FC0FD5F0D68A
:1008B500E4CEFBE4CDFAE4CCF9A88222B800C1B9B4
:1008C5000059BA002DEC8BF084CFCECDFCE5F0CBF2
:1008D500F97818EF2FFFEE33FEED33FDEC33FCEB2B
:1008E50033FB10D703994004EB99FB0FD8E5E4F9E6
:1008F500FA227818EF2FFFEE33FEED33FDEC33FCD3
:10090500C933C910D7059BE99A4007EC9BFCE99AC6
:10091500F90FD8E0E4C9FAE4CCFB2275F010EF2F0B
:10092500FFEE33FEED33FDCC33CCC833C810D7070B
:100935009BEC9AE899400AED9BFDEC9AFCE899F846
:0E0945000FD5F0DAE4CDFBE4CCFAE4C8F922D9
:00000001FF
